{
  "_format": "hh-sol-artifact-1",
  "contractName": "RampEscrow",
  "sourceName": "contracts/src/RampEscrow.sol",
  "abi": [
    {
      "inputs": [
        {
          "internalType": "address",
          "name": "_platformWallet",
          "type": "address"
        },
        {
          "internalType": "address[]",
          "name": "_allowedTokens",
          "type": "address[]"
        }
      ],
      "stateMutability": "nonpayable",
      "type": "constructor"
    },
    {
      "inputs": [
        {
          "internalType": "address",
          "name": "owner",
          "type": "address"
        }
      ],
      "name": "OwnableInvalidOwner",
      "type": "error"
    },
    {
      "inputs": [
        {
          "internalType": "address",
          "name": "account",
          "type": "address"
        }
      ],
      "name": "OwnableUnauthorizedAccount",
      "type": "error"
    },
    {
      "inputs": [],
      "name": "ReentrancyGuardReentrantCall",
      "type": "error"
    },
    {
      "inputs": [
        {
          "internalType": "address",
          "name": "token",
          "type": "address"
        }
      ],
      "name": "SafeERC20FailedOperation",
      "type": "error"
    },
    {
      "anonymous": false,
      "inputs": [
        {
          "indexed": true,
          "internalType": "bytes32",
          "name": "txId",
          "type": "bytes32"
        },
        {
          "indexed": true,
          "internalType": "address",
          "name": "user",
          "type": "address"
        },
        {
          "indexed": false,
          "internalType": "uint256",
          "name": "amount",
          "type": "uint256"
        }
      ],
      "name": "Cancelled",
      "type": "event"
    },
    {
      "anonymous": false,
      "inputs": [
        {
          "indexed": true,
          "internalType": "bytes32",
          "name": "txId",
          "type": "bytes32"
        },
        {
          "indexed": true,
          "internalType": "address",
          "name": "platformWallet",
          "type": "address"
        },
        {
          "indexed": false,
          "internalType": "uint256",
          "name": "amount",
          "type": "uint256"
        }
      ],
      "name": "Completed",
      "type": "event"
    },
    {
      "anonymous": false,
      "inputs": [
        {
          "indexed": true,
          "internalType": "bytes32",
          "name": "txId",
          "type": "bytes32"
        },
        {
          "indexed": true,
          "internalType": "address",
          "name": "user",
          "type": "address"
        },
        {
          "indexed": false,
          "internalType": "uint256",
          "name": "amount",
          "type": "uint256"
        },
        {
          "indexed": false,
          "internalType": "address",
          "name": "token",
          "type": "address"
        }
      ],
      "name": "Deposited",
      "type": "event"
    },
    {
      "anonymous": false,
      "inputs": [
        {
          "indexed": true,
          "internalType": "bytes32",
          "name": "txId",
          "type": "bytes32"
        },
        {
          "indexed": true,
          "internalType": "address",
          "name": "user",
          "type": "address"
        },
        {
          "indexed": false,
          "internalType": "uint256",
          "name": "amount",
          "type": "uint256"
        }
      ],
      "name": "ExpiredClaimed",
      "type": "event"
    },
    {
      "anonymous": false,
      "inputs": [
        {
          "indexed": true,
          "internalType": "address",
          "name": "previousOwner",
          "type": "address"
        },
        {
          "indexed": true,
          "internalType": "address",
          "name": "newOwner",
          "type": "address"
        }
      ],
      "name": "OwnershipTransferred",
      "type": "event"
    },
    {
      "anonymous": false,
      "inputs": [
        {
          "indexed": true,
          "internalType": "address",
          "name": "oldWallet",
          "type": "address"
        },
        {
          "indexed": true,
          "internalType": "address",
          "name": "newWallet",
          "type": "address"
        }
      ],
      "name": "PlatformWalletUpdated",
      "type": "event"
    },
    {
      "anonymous": false,
      "inputs": [
        {
          "indexed": true,
          "internalType": "address",
          "name": "token",
          "type": "address"
        },
        {
          "indexed": false,
          "internalType": "bool",
          "name": "allowed",
          "type": "bool"
        }
      ],
      "name": "TokenAllowed",
      "type": "event"
    },
    {
      "inputs": [],
      "name": "EXPIRY_DELAY",
      "outputs": [
        {
          "internalType": "uint256",
          "name": "",
          "type": "uint256"
        }
      ],
      "stateMutability": "view",
      "type": "function"
    },
    {
      "inputs": [
        {
          "internalType": "address",
          "name": "",
          "type": "address"
        }
      ],
      "name": "allowedTokens",
      "outputs": [
        {
          "internalType": "bool",
          "name": "",
          "type": "bool"
        }
      ],
      "stateMutability": "view",
      "type": "function"
    },
    {
      "inputs": [
        {
          "internalType": "bytes32",
          "name": "txId",
          "type": "bytes32"
        }
      ],
      "name": "cancelTransaction",
      "outputs": [],
      "stateMutability": "nonpayable",
      "type": "function"
    },
    {
      "inputs": [
        {
          "internalType": "bytes32",
          "name": "txId",
          "type": "bytes32"
        }
      ],
      "name": "claimExpired",
      "outputs": [],
      "stateMutability": "nonpayable",
      "type": "function"
    },
    {
      "inputs": [
        {
          "internalType": "bytes32",
          "name": "txId",
          "type": "bytes32"
        }
      ],
      "name": "completeTransaction",
      "outputs": [],
      "stateMutability": "nonpayable",
      "type": "function"
    },
    {
      "inputs": [
        {
          "internalType": "bytes32",
          "name": "txId",
          "type": "bytes32"
        },
        {
          "internalType": "uint256",
          "name": "amount",
          "type": "uint256"
        },
        {
          "internalType": "address",
          "name": "token",
          "type": "address"
        }
      ],
      "name": "deposit",
      "outputs": [],
      "stateMutability": "nonpayable",
      "type": "function"
    },
    {
      "inputs": [
        {
          "internalType": "bytes32",
          "name": "txId",
          "type": "bytes32"
        }
      ],
      "name": "getTransaction",
      "outputs": [
        {
          "components": [
            {
              "internalType": "address",
              "name": "user",
              "type": "address"
            },
            {
              "internalType": "uint256",
              "name": "amount",
              "type": "uint256"
            },
            {
              "internalType": "address",
              "name": "token",
              "type": "address"
            },
            {
              "internalType": "uint256",
              "name": "createdAt",
              "type": "uint256"
            },
            {
              "internalType": "bool",
              "name": "isCompleted",
              "type": "bool"
            },
            {
              "internalType": "bool",
              "name": "isCancelled",
              "type": "bool"
            }
          ],
          "internalType": "struct RampEscrow.Transaction",
          "name": "",
          "type": "tuple"
        }
      ],
      "stateMutability": "view",
      "type": "function"
    },
    {
      "inputs": [
        {
          "internalType": "bytes32",
          "name": "txId",
          "type": "bytes32"
        }
      ],
      "name": "isExpired",
      "outputs": [
        {
          "internalType": "bool",
          "name": "",
          "type": "bool"
        }
      ],
      "stateMutability": "view",
      "type": "function"
    },
    {
      "inputs": [],
      "name": "owner",
      "outputs": [
        {
          "internalType": "address",
          "name": "",
          "type": "address"
        }
      ],
      "stateMutability": "view",
      "type": "function"
    },
    {
      "inputs": [],
      "name": "platformWallet",
      "outputs": [
        {
          "internalType": "address",
          "name": "",
          "type": "address"
        }
      ],
      "stateMutability": "view",
      "type": "function"
    },
    {
      "inputs": [],
      "name": "renounceOwnership",
      "outputs": [],
      "stateMutability": "nonpayable",
      "type": "function"
    },
    {
      "inputs": [
        {
          "internalType": "address",
          "name": "_newWallet",
          "type": "address"
        }
      ],
      "name": "setPlatformWallet",
      "outputs": [],
      "stateMutability": "nonpayable",
      "type": "function"
    },
    {
      "inputs": [
        {
          "internalType": "address",
          "name": "_token",
          "type": "address"
        },
        {
          "internalType": "bool",
          "name": "_allowed",
          "type": "bool"
        }
      ],
      "name": "setTokenAllowed",
      "outputs": [],
      "stateMutability": "nonpayable",
      "type": "function"
    },
    {
      "inputs": [
        {
          "internalType": "bytes32",
          "name": "",
          "type": "bytes32"
        }
      ],
      "name": "transactions",
      "outputs": [
        {
          "internalType": "address",
          "name": "user",
          "type": "address"
        },
        {
          "internalType": "uint256",
          "name": "amount",
          "type": "uint256"
        },
        {
          "internalType": "address",
          "name": "token",
          "type": "address"
        },
        {
          "internalType": "uint256",
          "name": "createdAt",
          "type": "uint256"
        },
        {
          "internalType": "bool",
          "name": "isCompleted",
          "type": "bool"
        },
        {
          "internalType": "bool",
          "name": "isCancelled",
          "type": "bool"
        }
      ],
      "stateMutability": "view",
      "type": "function"
    },
    {
      "inputs": [
        {
          "internalType": "address",
          "name": "newOwner",
          "type": "address"
        }
      ],
      "name": "transferOwnership",
      "outputs": [],
      "stateMutability": "nonpayable",
      "type": "function"
    }
  ],
  "bytecode": "0x60806040523480156200001157600080fd5b50604051620013123803806200131283398101604081905262000034916200026a565b33806200005c57604051631e4fbdf760e01b8152600060048201526024015b60405180910390fd5b6200006781620001e7565b5060017f9b779b17422d0df92223018b32b4d1fa46e071723d6817e2486d003becc55f00556001600160a01b038216620000e45760405162461bcd60e51b815260206004820152601760248201527f496e76616c696420706c6174666f726d2077616c6c6574000000000000000000604482015260640162000053565b600180546001600160a01b0319166001600160a01b03841617905560005b8151811015620001de5760016003600084848151811062000127576200012762000353565b60200260200101516001600160a01b03166001600160a01b0316815260200190815260200160002060006101000a81548160ff0219169083151502179055508181815181106200017b576200017b62000353565b60200260200101516001600160a01b03167f9a8e30a8658b96ab3f034ce4bac6806278b4aee5880ccdd1ac35e4ed5bb31d236001604051620001c1911515815260200190565b60405180910390a280620001d58162000369565b91505062000102565b50505062000391565b600080546001600160a01b038381166001600160a01b0319831681178455604051919092169283917f8be0079c531659141344cd1fd0a4f28419497f9722a3daafe3b4186f6b6457e09190a35050565b80516001600160a01b03811681146200024f57600080fd5b919050565b634e487b7160e01b600052604160045260246000fd5b600080604083850312156200027e57600080fd5b620002898362000237565b602084810151919350906001600160401b0380821115620002a957600080fd5b818601915086601f830112620002be57600080fd5b815181811115620002d357620002d362000254565b8060051b604051601f19603f83011681018181108582111715620002fb57620002fb62000254565b6040529182528482019250838101850191898311156200031a57600080fd5b938501935b828510156200034357620003338562000237565b845293850193928501926200031f565b8096505050505050509250929050565b634e487b7160e01b600052603260045260246000fd5b6000600182016200038a57634e487b7160e01b600052601160045260246000fd5b5060010190565b610f7180620003a16000396000f3fe608060405234801561001057600080fd5b50600436106100f55760003560e01c80638831e9cf11610097578063d783847c11610066578063d783847c14610360578063e744092e14610378578063f2fde38b1461039b578063fa2af9da146103ae57600080fd5b80638831e9cf146103025780638da5cb5b14610315578063a130312a1461033a578063b16e13431461034d57600080fd5b80636db2feb2116100d35780636db2feb2146102b15780636ebf181b146102d457806370ba3339146102e7578063715018a6146102fa57600080fd5b806315f69012146100fa5780634aae13ca1461010f578063642f2eaf1461021b575b600080fd5b61010d610108366004610e4f565b6103c1565b005b6101c061011d366004610e8b565b6040805160c081018252600080825260208201819052918101829052606081018290526080810182905260a081019190915250600090815260026020818152604092839020835160c08101855281546001600160a01b03908116825260018301549382019390935292810154909116928201929092526003820154606082015260049091015460ff8082161515608084015261010090910416151560a082015290565b6040805182516001600160a01b039081168252602080850151908301528383015116918101919091526060808301519082015260808083015115159082015260a09182015115159181019190915260c0015b60405180910390f35b610271610229366004610e8b565b6002602081905260009182526040909120805460018201549282015460038301546004909301546001600160a01b039283169493919092169160ff8082169161010090041686565b604080516001600160a01b0397881681526020810196909652939095169284019290925260608301521515608082015290151560a082015260c001610212565b6102c46102bf366004610e8b565b610428565b6040519015158152602001610212565b61010d6102e2366004610ea4565b61048f565b61010d6102f5366004610e8b565b6106bd565b61010d610773565b61010d610310366004610ed9565b610787565b6000546001600160a01b03165b6040516001600160a01b039091168152602001610212565b61010d610348366004610e8b565b610833565b61010d61035b366004610e8b565b6108cb565b61036a6201518081565b604051908152602001610212565b6102c4610386366004610ed9565b60036020526000908152604090205460ff1681565b61010d6103a9366004610ed9565b610aea565b600154610322906001600160a01b031681565b6103c9610b25565b6001600160a01b038216600081815260036020908152604091829020805460ff191685151590811790915591519182527f9a8e30a8658b96ab3f034ce4bac6806278b4aee5880ccdd1ac35e4ed5bb31d23910160405180910390a25050565b600081815260026020526040812080546001600160a01b0316158015906104545750600481015460ff16155b801561046a57506004810154610100900460ff16155b801561048857506201518081600301546104849190610ef4565b4210155b9392505050565b610497610b52565b6001600160a01b03811660009081526003602052604090205460ff166104f85760405162461bcd60e51b8152602060048201526011602482015270151bdad95b881b9bdd08185b1b1bddd959607a1b60448201526064015b60405180910390fd5b6000821161053d5760405162461bcd60e51b81526020600482015260126024820152710416d6f756e74206d757374206265203e20360741b60448201526064016104ef565b6000838152600260205260409020546001600160a01b0316156105a25760405162461bcd60e51b815260206004820152601a60248201527f5472616e73616374696f6e20616c72656164792065786973747300000000000060448201526064016104ef565b6105b76001600160a01b038216333085610b6e565b6040805160c0810182523380825260208083018681526001600160a01b03868116858701818152426060880190815260006080890181815260a08a018281528e83526002808a52928c90209a518b549088166001600160a01b0319918216178c55975160018c01559351918a01805492909616919096161790935591516003870155915160049095018054915115156101000261ff00199615159690961661ffff1990921691909117949094179093558351868152908101929092529185917fcf76814c80fa0eff10d850b9e71cc4fd19f769cf953ac349a62982bfea63299d910160405180910390a36106b86001600080516020610f1c83398151915255565b505050565b6106c5610b25565b6106cd610b52565b60006106d882610baa565b60048101805461ff00191661010017905580546001820154600283015492935061070f926001600160a01b03908116921690610cab565b805460018201546040519081526001600160a01b039091169083907fd8b903b45b812ecba293ee1b008b3412d7135b053b5d38969c6d0f9512023385906020015b60405180910390a3506107706001600080516020610f1c83398151915255565b50565b61077b610b25565b6107856000610ce0565b565b61078f610b25565b6001600160a01b0381166107d75760405162461bcd60e51b815260206004820152600f60248201526e496e76616c6964206164647265737360881b60448201526064016104ef565b6001546040516001600160a01b038084169216907ff84f6b525c89a18c80bbbc0c62a7eb5390956d6b8432ab067b49963a98f8c38f90600090a3600180546001600160a01b0319166001600160a01b0392909216919091179055565b61083b610b25565b610843610b52565b600061084e82610baa565b60048101805460ff191660019081179091558054908201546002830154929350610885926001600160a01b03908116921690610cab565b60018054908201546040519081526001600160a01b039091169083907fa6ab77102d3c7edb58b76e1322ad5b684dd633151dbeab3fbc4c5ba3e4e6391c90602001610750565b6108d3610b52565b600081815260026020526040902080546001600160a01b03166109385760405162461bcd60e51b815260206004820152601a60248201527f5472616e73616374696f6e20646f6573206e6f7420657869737400000000000060448201526064016104ef565b80546001600160a01b031633146109855760405162461bcd60e51b81526020600482015260116024820152702737ba103a3432903232b837b9b4ba37b960791b60448201526064016104ef565b600481015460ff16156109ce5760405162461bcd60e51b8152602060048201526011602482015270105b1c9958591e4818dbdb5c1b195d1959607a1b60448201526064016104ef565b6004810154610100900460ff1615610a1c5760405162461bcd60e51b8152602060048201526011602482015270105b1c9958591e4818d85b98d95b1b1959607a1b60448201526064016104ef565b620151808160030154610a2f9190610ef4565b421015610a705760405162461bcd60e51b815260206004820152600f60248201526e139bdd081e595d08195e1c1a5c9959608a1b60448201526064016104ef565b60048101805461ff001916610100179055805460018201546002830154610aa5926001600160a01b0391821692911690610cab565b805460018201546040519081526001600160a01b039091169083907fdbaf97b9642b553f7aff7cf199703311f84739380628e766d2e382779bcae11690602001610750565b610af2610b25565b6001600160a01b038116610b1c57604051631e4fbdf760e01b8152600060048201526024016104ef565b61077081610ce0565b6000546001600160a01b031633146107855760405163118cdaa760e01b81523360048201526024016104ef565b610b5a610d30565b6002600080516020610f1c83398151915255565b610b7c848484846001610d60565b610ba457604051635274afe760e01b81526001600160a01b03851660048201526024016104ef565b50505050565b600081815260026020526040902080546001600160a01b0316610c0f5760405162461bcd60e51b815260206004820152601a60248201527f5472616e73616374696f6e20646f6573206e6f7420657869737400000000000060448201526064016104ef565b600481015460ff1615610c585760405162461bcd60e51b8152602060048201526011602482015270105b1c9958591e4818dbdb5c1b195d1959607a1b60448201526064016104ef565b6004810154610100900460ff1615610ca65760405162461bcd60e51b8152602060048201526011602482015270105b1c9958591e4818d85b98d95b1b1959607a1b60448201526064016104ef565b919050565b610cb88383836001610dd2565b6106b857604051635274afe760e01b81526001600160a01b03841660048201526024016104ef565b600080546001600160a01b038381166001600160a01b0319831681178455604051919092169283917f8be0079c531659141344cd1fd0a4f28419497f9722a3daafe3b4186f6b6457e09190a35050565b600080516020610f1c8339815191525460020361078557604051633ee5aeb560e01b815260040160405180910390fd5b6040516323b872dd60e01b60008181526001600160a01b038781166004528616602452604485905291602083606481808c5af192506001600051148316610dc0578383151615610db3573d6000823e3d81fd5b6000883b113d1516831692505b60405250600060605295945050505050565b60405163a9059cbb60e01b60008181526001600160a01b038616600452602485905291602083604481808b5af192506001600051148316610e2c578383151615610e1f573d6000823e3d81fd5b6000873b113d1516831692505b60405250949350505050565b80356001600160a01b0381168114610ca657600080fd5b60008060408385031215610e6257600080fd5b610e6b83610e38565b915060208301358015158114610e8057600080fd5b809150509250929050565b600060208284031215610e9d57600080fd5b5035919050565b600080600060608486031215610eb957600080fd5b8335925060208401359150610ed060408501610e38565b90509250925092565b600060208284031215610eeb57600080fd5b61048882610e38565b80820180821115610f1557634e487b7160e01b600052601160045260246000fd5b9291505056fe9b779b17422d0df92223018b32b4d1fa46e071723d6817e2486d003becc55f00a2646970667358221220a6e11ef32ef90b5339de1e8526c647c19da23556b9e74185372879a50bbc9a6464736f6c63430008140033",
  "linkReferences": {},
  "deployedLinkReferences": {}
}